:020000040800F2
:100000005848002061020008292E0008192700081E
:10001000292C0008ED0300081D380008000000002E
:10002000000000000000000000000000C9010008FE
:10003000650A0008000000000D020008F531000804
:100040007B0200087B0200087B0200087B0200089C
:100050007B0200087B0200087B0200087B0200088C
:100060007B0200087B0200087B0200087B0200087C
:100070007B0200087B0200087B0200087B0200086C
:100080007B0200087B0200087B0200087B0200085C
:100090007B0200087B0200087B0200087B0200084C
:1000A0007B0200087B0200087B0200087B0200083C
:1000B0007B0200086D3200087B0200087B0200080A
:1000C0007B0200087B0200087B0200087B0200081C
:1000D0007B0200087B0200087B0200080D38000844
:1000E0007B0200087B0200087B02000800F002F897
:1000F00000F05AF80AA090E8000C82448344AAF168
:100100000107DA4501D100F04FF8AFF2090EBAE865
:100110000F0013F0010F18BFFB1A43F0010318473B
:10012000A0690000C06900000A444FF0000C10F8FC
:10013000013B13F0070408BF10F8014B1D1108BF65
:1001400010F8015B641E05D010F8016B641E01F805
:10015000016BF9D113F0080F1EBF10F8014BAD1C55
:100160000C1B09D16D1E58BF01F801CBFAD505E073
:1001700014F8016B01F8016B6D1EF9D59142D6D3CD
:10018000704700000023002400250026103A28BFF5
:1001900078C1FBD8520728BF30C148BF0B607047F9
:1001A0001FB51FBD10B510BD00F0B8F81146FFF720
:1001B000F7FF04F007F800F0D6F803B4FFF7F2FFFA
:1001C00003BC00F0D9F80000224B19680868B0E8B9
:1001D000F00F80F30988BFF36F8F4FF0000080F3BA
:1001E00011884EF00D0E70470000000006480068B0
:1001F000006880F3088862B661B6BFF34F8FBFF323
:100200006F8F00DF00BF00BF08ED00E0EFF3098053
:10021000BFF36F8F0F4B1A6820E9F00F106008B51D
:100220004FF0500080F31188BFF34F8FBFF36F8FF3
:1002300004F060FC4FF0000080F31188BDE8084036
:1002400019680868B0E8F00F80F30988BFF36F8F72
:10025000704700BF10000020EFF3058070470000DA
:100260000948804709480047FEE7FEE7FEE7FEE74A
:10027000FEE7FEE7FEE7FEE7FEE7FEE70448054986
:10028000054A064B704700006B320008ED0000087D
:10029000584200205848002058440020584400206C
:1002A0004FF0000200B5134694469646203922BF0F
:1002B000A0E80C50A0E80C50B1F12001BFF4F7AF5A
:1002C000090728BFA0E80C5048BF0CC05DF804EB3C
:1002D000890028BF40F8042B08BF704748BF20F8AA
:1002E000022B11F0804F18BF00F8012B70477047A8
:1002F0007047704710B500F009F8006810BD10B5E0
:10030000044600F003F8046010BD00000048704788
:10031000F441002000487047F44100207546FFF783
:10032000F9FFAE4605006946534620F007008546B2
:1003300018B020B5FFF7A2FFBDE820404FF000063F
:100340004FF000074FF000084FF0000B21F00701BD
:10035000AC46ACE8C009ACE8C009ACE8C009ACE800
:10036000C0098D46704710B50446AFF300802046A3
:10037000BDE81040FFF721BF01491820ABBEFEE7E2
:1003800026000200704700002DE9F05F05460E468A
:1003900014463146284605F014FF80460F48016890
:1003A000404605F019FF0746204605F0C1FD83468B
:1003B0000B480168584605F007FE81460948016868
:1003C000384605F001FE8246494605F065FC804648
:1003D00005F092FD04490860BDE8F09F2801002067
:1003E000300100202C0100202401002000BFFEE786
:1003F0001CB50648012100238022CDE9001004A18C
:10040000064804F0DBFB04F037FB1CBD580100205C
:100410004361725F5374617274000000210400082C
:100420001CB5044604F050FA114803210023802231
:10043000CDE900100FA1124804F0C0FB11480321C0
:1004400000238022CDE900100FA1134804F0B6FB71
:100450001248022100238022CDE9001010A1134888
:1004600004F0ACFB002004F09DFA04F03FFA1CBD40
:100470005C010020446174615F5461736B00000093
:100480002D0A000860010020436F6E74726F6C5F6C
:100490005461736B00000000B10400086401002087
:1004A00053686F775F5461736B000000D1310008AF
:1004B0001AE04FF0FF320121002004F077F90B48D9
:1004C00002680B48B0F900100A48B0F9000003F0C8
:1004D000A7F90948B0F900200448016807480068F6
:1004E000FFF752FF02F00EFEE3E70000CC00002011
:1004F00072000020700000208600002034010020DF
:1005000000B58FB003F0C6FDFE4880680690FD4838
:1005100080680590069905F057FD0890F9484068F5
:100520000490F84840680390049905F04DFD06904A
:10053000F44800680490F34800680390049905F0BB
:1005400043FD0590069905F0A7FB0790089905F073
:10055000A3FB099003F010FE0E90EA480068099092
:100560000E9905F031FDE8490860E64840680990B9
:100570000E9905F029FDE5490860E2488068099078
:100580000E9905F021FDE2490860E2488068069076
:10059000E04800680590069905F016FD0890DD48D2
:1005A000C0680690DB4840680590069905F00CFD90
:1005B0000790089905F010FE4FF08041099005F072
:1005C00003FDD5490860D34840680690D1480068CB
:1005D0000590069905F0F8FC0890CE48C068069092
:1005E000CC4880680590069905F0EEFC07900899C4
:1005F00005F052FB4FF08041099005F0E5FCC7493A
:100600000860C448C0680790C248C068069007994F
:1006100005F0DAFC0990BF4880680590BD48806805
:100620000490059905F0D0FC0790BA484068039003
:10063000B84840680290039905F0C6FC0590B5489B
:1006400000680390B34800680290039905F0BCFC71
:100650000490059905F0C0FD0690079905F0BCFDD2
:100660000890099905F018FBAD490860AB4801688E
:10067000A748006805F0A8FC0990A9480168A348AC
:10068000006805F0A1FC0890099905F0A5FDA549B1
:100690000860A34801689C48006805F095FC099033
:1006A0009D4801689A48006805F08EFC08900999F9
:1006B00005F092FD9C4908609748016893480068DE
:1006C00005F082FC0990954801688F48006805F0A4
:1006D0007BFC0890099905F07FFD944908609148DA
:1006E0000168934805F070FC0990924801680998E8
:1006F00005F0D2FA8F4908608B4801688C4805F0F4
:1007000063FC09908C480168099805F0C5FA8A498C
:10071000086086480168864805F056FC09908748BD
:100720000168099805F0B8FA844908607D480168B5
:100730004FF0804005F048FC08907E48016808981A
:1007400005F0AAFA09906F48C06801460890099818
:1007500005F0A2FA6B49C860734801684FF0804009
:1007600005F032FC089074480168089805F094FA86
:1007700009906448006901460890099805F08CFAD0
:1007800060490861694801684FF0804005F01CFC31
:1007900008906A480168089805F07EFA099059485F
:1007A000406901460890099805F076FA5549486174
:1007B0005848C0680590084640690490059905F0BE
:1007C00003FC07905348806803904E4800690290EC
:1007D000039905F0F9FB05904A48C06880F0004095
:1007E00003904C48406801460290039805F0ECFBEA
:1007F0000490059905F0F0FC0690079905F0ECFCD3
:100800004F49089005F0E0FB099042480068014616
:100810000890099805F040FA0A903E4880680590D3
:10082000384840690490059905F0CEFB0790394897
:10083000C0680390334800690290039905F0C4FB37
:1008400005903448006803902E48C06802900399D0
:1008500005F0BAFB0490059905F0BEFC06900799D7
:1008600005F01AFA3649089005F0AEFB09902948C0
:10087000406801460890099805F00EFA0B9025484B
:10088000406805901F4840690490059905F09CFB5D
:1008900007902048006803901A4800690290039965
:1008A00005F092FB05901B48C06803901548C0688E
:1008B0000290039905F088FB0490059905F0ECF986
:1008C0000690079905F088FC1D49089005F07CFB0F
:1008D00009901048806801460890099805F0DCF9F5
:1008E0000C900C48006805900648406904900599F2
:1008F00005F06AFB079007484068039001480069CB
:1009000002901FE04C4000208C000020900000204E
:100910009400002098000020A8000020AC000020D7
:10092000B0000020B4000020B8000020BC0000206F
:10093000ACC5A737C0000020C4000020C8000020BC
:100940000AD7233B039905F03FFB05903448C06864
:1009500080F000400390334880680146029003987D
:1009600005F032FB0490059905F096F90690079979
:1009700005F092F92C49089005F026FB09902948CA
:10098000C06801460890099805F086F90D900D9809
:1009900006900146059005F017FB08900C9804900E
:1009A0000146039005F010FB06900B98029001465B
:1009B000019005F009FB04900A980290014601900D
:1009C00005F002FB0390049905F066F9059006997D
:1009D00005F062F90790089905F05EF9099003F0B7
:1009E000CBFB0E900A9809900E9905F0EDFA0D498F
:1009F00008600B9809900E9905F0E6FA09494860DD
:100A00000C9809900E9905F0DFFA064988600D9858
:100A100009900E9905F0D8FA0249C8600FB000BDE0
:100A20004C400020980000200AD7233B1CB504F05E
:100A3000E9F9019012E000F039F800F015F8002013
:100A400002230246014600900548006804F024F99C
:100A500000BF052101A804F0E5F800BFEBE70000A6
:100A600060010020704700000A480068406A404268
:100A700000B2094908800020064909684862074811
:100A80000068406A00B206490880002003490968EE
:100A900048627047D4400020700000201C410020B4
:100AA0007200002072B600BFFEE700002DE9F04F93
:100AB00089B003F0EFFAFFF723FD4A4AD168D06806
:100AC00005F082FA474A04909168906805F07CFA34
:100AD000444A03905168506805F076FA414A029002
:100AE0001168106805F070FA0190029905F074FB26
:100AF0008346039905F070FB8246049905F0CCF813
:100B0000059005F09DF806460F46364A5168106874
:100B100005F05AFA334A0590D168906805F054FA06
:100B20000490059905F0B8F883464FF0804105F030
:100B30004BFA824605F084F832463B46CDE9060181
:100B400003F0DAF90446284A284B04F09FFD80465A
:100B500004F0D4FA26490860224A9168106805F02A
:100B600033FA204A0790D168506805F02DFA0690B4
:100B7000079905F031FB83464FF0804105F024FAD8
:100B8000824605F05DF8804602F06EFF81F000417C
:100B90000646154A154B04F079FD044604F0AEFAFA
:100BA0001449086014494869144905F00DFA079082
:100BB00005F046F880460C4A0C4B04F067FD0646EB
:100BC0000F460F48006805F03BF8824632463B4628
:100BD00004F0C6FA044604F091FA0949086009B025
:100BE000BDE8F08F98000020D9CEF753E3A54C4024
:100BF000CC000020D00000204C4000200AD7A33BAE
:100C0000D40000200146002291F82100022808D0DB
:100C10000420886300BF002081F8200000BF01206D
:100C200070470868006820F00E000B6818600868BC
:100C3000006820F001000B68186091F84030012036
:100C40009840CB6B5860012081F8210000BF002044
:100C500081F8200000BF1046E2E7000070B50446AE
:100C6000002594F82100022803D00420A063012568
:100C700048E02068006820F00E00216808602068C5
:100C8000006820F00100216808601F492068884240
:100C900001D1012026E01C4914312068884201D18D
:100CA00010201FE0184928312068884201D18015A2
:100CB00018E015493C312068884201D1801411E0C8
:100CC000114950312068884202D14FF4803009E048
:100CD0000D4964312068884202D14FF4801001E050
:100CE0004FF08070084908394860012084F82100DD
:100CF00000BF002084F8200000BF606B10B12046C8
:100D0000616B8847284670BD0800024070B50446F4
:100D100000F0AEF906462546681C10B1044800787C
:100D2000054400BF00F0A4F9801BA842FAD370BDAF
:100D30000C0000202DE9F8470346002294466EE19E
:100D40004FF0010808FA02F4D1F8008008EA040024
:100D5000A0427DD1DFF8DCA2D1F80480A8EB0A091B
:100D6000D0453AD014DCB8F1030F50D009DCB8F10B
:100D7000000F31D0B8F1010F1CD0B8F1020F49D1EA
:100D800020E0B8F1110F18D0B8F1120F42D11EE0D7
:100D9000B9F5881F25D006DCB9F5803F20D0B9F51C
:100DA000801F37D11AE0B9F5001F18D0B9F5041F1C
:100DB00030D117E0D1F80CC02DE0D1F80C8008F14B
:100DC000040C28E0D1F80C8008F1080C23E0D1F8DD
:100DD0000C8008F10C0C1EE000BF00BF00BF00BF7C
:100DE00000BF00BFD1F80880B8F1000F02D14FF06A
:100DF000040C0BE0D1F80880B8F1010F03D14FF0DB
:100E0000080C1C6102E04FF0080C5C6103E04FF03D
:100E1000000C00E000BF00BFFF2801D8984601E0A9
:100E200003F104084646FF2802D84FEA820803E08F
:100E3000A2F108084FEA88084746D6F800804FF02C
:100E40000F0909FA07F928EA09080CFA07F900E07E
:100E500088E048EA0908C6F80080D1F8048008F064
:100E60008058B8F1805F7DD100BFDFF8CC81D8F821
:100E7000188048F00108DFF8C091C9F81880C8460A
:100E8000D8F8188008F00108CDF8008000BF00BF36
:100E90004FEAB9384FEA920958F829504FEA827858
:100EA0004FEA18794FF00F0808FA09F825EA080503
:100EB000DFF88881434502D14FF0000816E0DFF8E3
:100EC0008081434502D14FF001080FE0DFF87481C3
:100ED000434502D14FF0020808E0DFF86C8143453A
:100EE00002D14FF0030801E04FF004084FEA827985
:100EF0004FEA197908FA09F848EA0505DFF84C8144
:100F00004FEA920948F82950D1F8048008F4801873
:100F1000B8F5801F0AD1DFF83881D8F8008048EA98
:100F20000008DFF82C91C9F8008009E0DFF8208183
:100F3000D8F8008028EA0008DFF81491C9F800808A
:100F4000D1F8048008F40018B8F5001F10D1DFF8BC
:100F5000008108F10408D8F8008048EA0008DFF8AA
:100F6000F09000E05AE009F10409C9F800800DE0B2
:100F7000DFF8DC8008F10408D8F8008028EA0008CF
:100F8000DFF8CC9009F10409C9F80080D1F8048099
:100F900008F40038B8F5003F0ED1DFF8B480A8F1AE
:100FA0000408D8F8008048EA0008DFF8A490A9F106
:100FB0000409C9F800800DE0DFF89480A8F1040866
:100FC000D8F8008028EA0008DFF88490A9F1040925
:100FD000C9F80080D1F8048008F48038B8F5803F63
:100FE0000ED1DFF86C80A8F10808D8F8008048EA34
:100FF0000008DFF85C90A9F10809C9F800800DE04D
:10100000DFF84C80A8F10808D8F8008028EA00082A
:10101000DFF83C90A9F10809C9F80080521CD1F80A
:10102000008028FA02F8B8F1000F7FF489AEBDE81D
:10103000F887000000001110001002400008014075
:10104000000C014000100140001401400800014064
:1010500008040140024693680B400BB1012000E0F8
:10106000002070470AB1016101E00B040361704781
:101070000148006870470000040000200348006831
:1010800003490978084401490860704704000020BA
:101090000C00002010B50848006840F01000064918
:1010A0000860032000F0E2F8012000F007F800F0EB
:1010B0005FF8002010BD0000002002402DE9F04143
:1010C00088B004460027B846002600BF2348C06900
:1010D00040F002002149C8610846C06900F00200E2
:1010E000019000BF00BF02A903A800F099F9069F74
:1010F0001FB900F0BDF9054602E000F0B9F945005E
:101100001748B5FBF0F0A0F1010816481649086031
:1011100040F2E7311448C160C0F804800021016149
:101120008160816100F0ACFC064696B90E4800F083
:10113000F3FC06466EB91D2000F04AF8102C07D2C9
:10114000002221461D2000F053F80848046000E00A
:101150000126304608B0BDE8F081000000100240D2
:1011600040420F0000040040AC4100200800002075
:1011700008B500BF1448806940F001001249886139
:101180000846806900F00100009000BF00BF00BF6A
:101190000846C06940F08050C8610846C06900F048
:1011A0008050009000BF00BF00220F21901E00F071
:1011B0001FF800BF0549486820F0E06040F000706B
:1011C000486000BF08BD0000001002400000014060
:1011D00001460846002809DB00F01F0301229A405F
:1011E00043099B0003F1E023C3F8002100BF7047CF
:1011F0002DE9F05F80460D461646002702F0B0FB51
:10120000074639462A46334601F00700C0F1070A6F
:10121000BAF1040F02D94FF0040A01E0C0F1070A45
:10122000D14600F1040ABAF1070F02D24FF0000ACA
:1012300001E0A0F1030AD4464FF0010A0AFA09FAC4
:10124000AAF1010A0AEA020A0AFA0CFA4FF0010BA3
:101250000BFA0CFBABF1010B0BEA030B4AEA0B0494
:101260002146404602F084FBBDE8F09F00BF00F03D
:101270000702064B19684FF6FF031940044B0B4356
:1012800043EA0221014B196000BF70470CED00E0FA
:101290000000FA0570B504460D460CB9012070BD7A
:1012A0005A48006800F00700A8420ED2574800686C
:1012B00020F007002843554908600846006800F000
:1012C0000700A84201D00120E9E7207800F00200E1
:1012D00002281DD1207800F00400042805D14C48D4
:1012E000406840F4E0604A494860207800F0080017
:1012F000082805D14648406840F460504449486099
:101300004348406820F0F000A16808434049486025
:10131000207800F0010078B36068012806D13C48CD
:10132000006800F4003090B90120B8E76068022836
:1013300006D13748006800F0007040B90120AEE7E0
:101340003348006800F0020008B90120A7E73048E0
:10135000406820F00300616808432D494860FFF7AA
:1013600087FE064609E0FFF783FE801B41F28831C5
:10137000884202D9032092E707E02548406800F040
:101380000C006168B0EB810FEDD12048006800F0DF
:101390000700A8420ED91D48006820F00700284326
:1013A0001A4908600846006800F00700A84201D00A
:1013B000012074E7207800F00400042807D11448C5
:1013C000406820F4E060E1680843114948602078F3
:1013D00000F00800082808D10D48406820F460504B
:1013E000216940EAC1000A49486000F061F80849F3
:1013F0004968C1F30311074A515CC84006490860B7
:1014000006480068FFF75AFE002048E70020024027
:1014100000100240B2630008000000200800002015
:101420000F2202600D4A526802F0030242600B4A2A
:10143000526802F0F0028260084A526802F4E062E8
:10144000C260064A526802F46052D2080261044A3D
:10145000126802F007020A607047000000100240A4
:101460000020024001480068704700000000002092
:1014700000B5FFF7F7FF04494968C1F30221034AA9
:10148000515CC84000BD000000100240C26300086B
:1014900000B5FFF7E7FF04494968C1F3C221034AD9
:1014A000515CC84000BD000000100240C26300084B
:1014B00070B500210022002400230020134D69682C
:1014C00001F00C05F5B1042D02D0082D19D101E071
:1014D0000F4819E00F4DC1F38346AB5D01F4803531
:1014E00055B10A4D6D68C5F340450B4E725D084D10
:1014F0005D43B5FBF2F402E0084D03FB05F4204622
:1015000002E000BF024800BF00BF70BD00100240F3
:1015100000127A00CA630008DA63000800093D007F
:10152000F8B504460CB90120F8BD207800F00100A0
:10153000002878D0F848406800F00C0004280CD04F
:10154000F548406800F00C00082811D1F2484068C6
:1015500000F48030B0F5803F0AD1EF48006800F415
:10156000003000285FD0606800285CD10120DBE7F4
:1015700000BF6068B0F5803F06D1E748006840F4DE
:101580008030E549086028E0606858B9E2480068A2
:1015900020F48030E04908600846006820F480208C
:1015A00008601AE06068B0F5A02F0BD1DA48006837
:1015B00040F48020D84908600846006840F4803034
:1015C00008600AE0D448006820F48030D2490860FE
:1015D0000846006820F48020086000BF606888B179
:1015E000FFF746FD054606E0FFF742FD401B642875
:1015F00001D9032098E7C848006800F400300028AB
:10160000F2D010E0FFF734FD054606E0FFF730FDAD
:10161000401B642801D9032086E7BF48006800F416
:1016200000300028F2D1207800F00200022857D1C3
:10163000B948406800F00C0050B1B748406800F06D
:101640000C00082818D1B448406800F4803098B9DC
:10165000B148006800F0020020B12069012801D0E3
:10166000012061E7AC48006820F0F800616940EAB9
:10167000C100A949086033E02069E8B10120A74909
:101680000860FFF7F5FC054606E0FFF7F1FC401B9C
:10169000022801D9032047E79F48006800F00200B4
:1016A0000028F2D09C48006820F0F800616940EA08
:1016B000C1009949086013E0002098490860FFF7CD
:1016C000D7FC054606E0FFF7D3FC401B022801D9F2
:1016D000032029E79048006800F002000028F2D1BA
:1016E000207800F0080008282DD1A069B8B10120A9
:1016F0008B490860FFF7BCFC054606E0FFF7B8FC25
:10170000401B022801D903200EE78348406A00F0FD
:1017100002000028F2D0012001F046FD13E0002075
:101720007F490860FFF7A4FC054606E0FFF7A0FC30
:10173000401B022801D90320F6E67748406A00F0F2
:1017400002000028F2D1207800F00400042873D1B0
:1017500000277148C06900F0805070B900BF6E4822
:10176000C06940F080506C49C8610846C06900F00B
:101770008050009000BF00BF01276A48006800F455
:101780008070B0B96748006840F4807065490860AF
:10179000FFF76EFC054606E0FFF76AFC401B642875
:1017A00001D90320C0E65F48006800F4807000287B
:1017B000F2D000BFE068012806D15748006A40F027
:1017C00001005549086227E0E06858B95248006AAC
:1017D00020F00100504908620846006A20F0040029
:1017E000086219E0E06805280BD14B48006A40F018
:1017F0000400494908620846006A40F00100086296
:101800000AE04548006A20F00100434908620846A2
:10181000006A20F00400086200BFE068A0B1FFF792
:1018200027FC054609E0FFF723FC401B41F2883105
:10183000884202D9032077E622E03748006A00F0A8
:1018400002000028EFD012E0FFF712FC054608E086
:10185000FFF70EFC401B41F28831884201D903207A
:1018600062E62D48006A00F002000028F0D1012F46
:1018700005D12948C06920F080502749C86100BFC0
:10188000E069C8B32448406800F00C00082860D024
:10189000E069022848D1002020490866FFF7E8FBEC
:1018A000054606E0FFF7E4FB401B022801D90320B0
:1018B0003AE61948006800F000700028F2D1206A6A
:1018C000B0F5803F07D11448406820F40030A1688B
:1018D000084311494860D4E9080108430E494968A2
:1018E00021F4741108430C49486001200B49086633
:1018F000FFF7BEFB054607E03DE0FFF7B9FB401BE5
:10190000022801D903200FE60348006800F00070A8
:101910000028F2D02FE000000010024000004242F8
:101920008004424200700040002014490866FFF71E
:101930009FFB054606E0FFF79BFB401B022801D9F1
:101940000320F1E50E48006800F000700028F2D195
:1019500011E0E069012800D1E6E50948466806F48F
:101960008031206A814204D106F47011606A81429C
:1019700001D00120D8E50020D6E500000000424259
:10198000001002407047704710B50346002200BFA8
:1019900093F83C00012801D1022010BD012083F8FA
:1019A0003C0000BF22F0FF00CC6840EA040222F4B1
:1019B00040708C6840EA040222F480604C6840EA7F
:1019C000040222F400600C6840EA040222F4805011
:1019D0000C6940EA040222F400504C6940EA040217
:1019E00022F48040CC6940EA04021868426400BFD7
:1019F000002083F83C0000BF00BFCEE730B50246B0
:101A00000B4600BF92F83C00012801D1022030BDF6
:101A1000012082F83C0000BF022082F83D001068DF
:101A200044681068816824F07004186804431068E2
:101A30004460104D1068A8420BD01068B0F1804F80
:101A400007D00D4D1068A84203D00C4D1068A84275
:101A500005D121F0800158680143106881600120A0
:101A600082F83D0000BF002082F83C0000BF00BFAC
:101A7000CDE70000002C01400004004000080040B9
:101A800010B504460CB9012010BD94F83D0028B9EA
:101A9000002084F83C00204600F026F8022084F85C
:101AA0003D00211D206801F0E9FB012084F846007B
:101AB00000BF84F83E0001213F2001554020015520
:101AC0004120015500BF00BF012084F8420043209F
:101AD0000155442001554520015500BF012084F8DF
:101AE0003D000020D0E7000008B5094A0168914296
:101AF0000DD100BF0749896941F40061054A916130
:101B00001146896901F40061009100BF00BF08BD62
:101B1000002C014000100240014691F83D000128D0
:101B200001D001207047022081F83D000868C0689C
:101B300040F001000B68D860124B086898420BD047
:101B40000868B0F1804F07D00F4B0868984203D067
:101B50000E4B086898420CD10868806800F00702B4
:101B6000062A0CD00868006840F001000B68186075
:101B700005E00868006840F001000B68186000206C
:101B8000D0E70000002C01400004004000080040A5
:101B90002DE9F04104460D46002700BF94F83C00B3
:101BA000012802D10220BDE8F081012084F83C0028
:101BB00000BF022084F83D002068866826F0770682
:101BC00026F47F46206886602868502833D00CDCD5
:101BD000202850D004DC00284BD0102851D149E0F7
:101BE000302849D040284CD139E060282DD07028C9
:101BF00007D0B0F5805F03D0B0F5005F41D10DE0B4
:101C000041E0D5E902136A68206801F08AFB206888
:101C1000866846F077062068866034E0D5E90213CE
:101C20006A68206801F07DFB2068806840F480408D
:101C30002168886027E0EA686968206801F042FC52
:101C40005021206801F078FB1DE0EA68696820688F
:101C500001F04BFC6021206801F06EFB13E0EA68A4
:101C60006968206801F02EFC4021206801F064FBC7
:101C700009E000BF00BF00BF2968206801F05CFBDD
:101C800001E0012700BF00BF012084F83D0000BF34
:101C9000002084F83C0000BF384684E72DE9F0417D
:101CA00004460D4614B90120BDE8F08194F83D00CA
:101CB00028B9002084F83C00204600F051F80220AA
:101CC00084F83D002068806844F207018843216859
:101CD0008860211D206801F0D1FA2068D0F80880C2
:101CE000206886692068076A286840EA080840F288
:101CF00003308643A969A86840EA0120064340F6FC
:101D00000C4086434FF2F0008643E969E86840EAF8
:101D10000120064328690001296A40EA0130064390
:101D200027F022076969686840EA011007432068C4
:101D3000C0F808802068866120680762012084F866
:101D4000460084F83E0001213F200155012084F81F
:101D5000420043200155012084F83D000020A3E704
:101D600010B586B0044600200290039004900590C0
:101D70002068B0F1804F24D100BF2748C06940F0EF
:101D800001002549C8610846C06900F001000190C2
:101D900000BF00BF00BF0846806940F004008861B2
:101DA0000846806900F00400019000BF00BF0320D6
:101DB000029000200390049002A91848FEF7BAFF91
:101DC00027E017492068884223D100BF1248C06924
:101DD00040F004001049C8610846C06900F00400E2
:101DE000019000BF00BF00BF0846806940F00800B6
:101DF00088610846806900F00800019000BF00BFBC
:101E0000C020029000200390049002A90548FEF72C
:101E100091FF06B010BD0000001002400008014014
:101E200000080040000C01402DE9F04304460D4637
:101E300094F83E603F20075D94F84280432010F8FC
:101E400004906DB9012E02D1B8F1010F02D001202A
:101E5000BDE8F083022084F83E0084F8420025E0CB
:101E6000042D0CD1012F02D1B9F1010F01D00120B5
:101E7000EEE702213F2001554320015516E0012ED7
:101E800007D1012F05D1B8F1010F02D1B9F1010F2E
:101E900001D00120DCE7022084F83E0002213F202F
:101EA0000155022084F842004320015515B1042D4C
:101EB0000CD105E001220021206801F021FA10E098
:101EC00001220421206801F01BFA0AE0012200210E
:101ED000206801F015FA01220421206801F010FAAF
:101EE00000BF00BF2068006840F001002168086062
:101EF0000020ADE7704770B504462068C5682068CB
:101F0000066906F00200022819D105F00200022835
:101F100015D1401F21680861012020772068806961
:101F200000F0030018B12046FFF7E4FF05E020466B
:101F300000F0C4F8204600F078F90020207706F081
:101F40000400042819D105F00400042815D1C04369
:101F500021680861022020772068806900F44070C1
:101F600018B12046FFF7C6FF05E0204600F0A6F8AE
:101F7000204600F05AF90020207706F008000828D3
:101F800019D105F00800082815D1C043216808615F
:101F9000042020772068C06900F0030018B12046B3
:101FA000FFF7A8FF05E0204600F088F8204600F083
:101FB0003CF90020207706F01000102819D105F018
:101FC0001000102815D1C04321680861082020772F
:101FD0002068C06900F4407018B12046FFF78AFFFE
:101FE00005E0204600F06AF8204600F01EF90020C7
:101FF000207706F0010048B105F0010030B16FF024
:10200000010021680861204600F07AF906F080009E
:10201000802809D105F08000802805D1C0432168BF
:1020200008612046FFF7AEFC06F04000402809D1C9
:1020300005F04000402805D1C043216808612046D2
:1020400000F06AF906F02000202809D105F02000F0
:10205000202805D1C043216808612046FFF793FC82
:1020600070BD000010B586B00446002002900390B9
:10207000049005900E492068884217D100BF0D4892
:10208000806940F004000B4988610846806900F0CF
:102090000400019000BF00BF4FF4106002900220C6
:1020A0000390059002A90448FEF744FE06B010BD57
:1020B000002C0140001002400008014070472DE94B
:1020C000F04104460D461646002700BF94F83C0038
:1020D000012802D10220BDE8F081012084F83C00F3
:1020E00000BF36B1042E1BD0082E31D00C2E5ED18D
:1020F00045E02946206801F029F92068806940F010
:102100000800216888612068806920F00400216847
:10211000886120688069296908432168886148E0EE
:102120002946206801F042F92068806940F4006087
:10213000216888612068806920F480602168886156
:1021400020688069296940EA01202168886130E0BF
:102150002946206801F05EF92068C06940F0080057
:102160002168C8612068C06920F004002168C86146
:102170002068C069296908432168C86119E02946B7
:10218000206801F07BF92068C06940F40060216894
:10219000C8612068C06920F480602168C861206837
:1021A000C069296940EA01202168C86101E001276E
:1021B00000BF00BF00BF002084F83C0000BF3846CD
:1021C00089E710B504460CB9012010BD94F83D0014
:1021D00028B9002084F83C00204600F025F80220B1
:1021E00084F83D00211D206801F048F8012084F8A2
:1021F000460000BF84F83E0001213F2001554020E9
:1022000001554120015500BF00BF012084F8420064
:1022100043200155442001554520015500BF0120B0
:1022200084F83D000020D0E77047704770B5044641
:102230000D4615B994F83E000BE0042D02D13F2065
:10224000005D06E0082D02D14020005D01E0412044
:10225000005D012801D0012070BD1DB9022084F865
:102260003E000EE0042D03D102213F20015508E07D
:10227000082D03D102214020015502E00221412016
:10228000015501222946206801F03AF819492068D1
:10229000884201D1012000E0002028B12068406C74
:1022A00040F40040216848641249206888420BD0FD
:1022B0002068B0F1804F07D00F492068884203D0D2
:1022C0000E49206888420CD12068806800F007061B
:1022D000062E0CD02068006840F0010021680860DC
:1022E00005E02068006840F00100216808600020D7
:1022F000B2E70000002C014000040040000800404C
:1023000010B5044603492068884201D1FEF7B6FEA5
:1023100010BD000000040040704770477047000087
:102320002DE9F84F0446206805682068C6682068D3
:1023300047694FF00009CA4605F00F09B9F1000FCF
:102340000AD105F0200038B106F0200020B1204667
:1023500001F02FF9BDE8F88FB9F1000F7BD007F03D
:10236000010018B906F49070002874D005F001003F
:1023700030B106F4807018B1606C40F00100606408
:1023800005F0040030B107F0010018B1606C40F0B6
:102390000200606405F0020030B107F0010018B1DE
:1023A000606C40F00400606405F0080048B106F07D
:1023B000200010B907F0010018B1606C40F008006F
:1023C0006064606C002845D005F0200028B106F05C
:1023D000200010B1204601F0ECF820684069C0F3FD
:1023E000801A606C00F0080010B9BAF1000F2CD010
:1023F000204601F098F82068406900F0400000B3E2
:1024000000BF00BF2168143151E8001F21F04000D7
:102410002168143141E80002002AF3D100BFE06BCB
:1024200050B17748E16B4863E06BFEF717FC88B169
:10243000E06B416B88470DE02046FFF76FFF09E036
:1024400009E02046FFF76AFF04E02046FFF766FF39
:10245000002060647EE7206B012877D105F0100032
:10246000002873D006F010000028FAD000BF00202A
:10247000009020680068009020684068009000BFCD
:1024800000BF2068406900F0400000285FD0E06B8A
:10249000006840681FFA80F8B8F1000F55D0A08D91
:1024A000404552DDA4F82E80E06B8069202843D09F
:1024B00000BF00BF21680C3151E8001F21F480707B
:1024C00021680C3141E80002002AF3D100BF00BFAF
:1024D00000BF2168143151E8001F21F0010021687C
:1024E000143141E80002002AF3D100BF00BF00BF51
:1024F0002168143151E8001F21F040002168143197
:1025000041E80002002AF3D100BF202084F84200F5
:102510000020206300BF00BF21680C3151E8001F7C
:1025200021F0100021680C3141E80002002AF3D1AB
:1025300000BFE06BFEF766FB02206063A08DE28DBA
:10254000801A81B22046FFF7E8FE03E742E0A08D43
:10255000E18D401A1FFA80F8E08DD0B3B8F1000F7A
:1025600037D000BF00BF21680C3151E8001F21F4B3
:10257000907021680C3141E80002002AF3D100BFBD
:1025800000BF00BF2168143151E8001F21F0010095
:102590002168143141E80002002AF3D100BF202055
:1025A00084F842000020206300BF00BF21680C3186
:1025B00051E8001F21F0100021680C3141E80002B1
:1025C000002AF3D100BF0220606341462046FFF796
:1025D000A4FEBFE605F0800030B106F0800018B11F
:1025E000204601F0E3F8B5E605F0400030B106F012
:1025F000400018B1204600F0CCFFABE600BFA9E6D2
:102600001335000810B504460CB9012010BDA069AF
:1026100000B100E000BF94F8410028B9002084F820
:102620004000204600F02AF8242084F84100206869
:10263000C06820F400502168C860204601F038F8D6
:102640002068006920F49040216808612068406992
:1026500020F02A00216848612068C06840F40050DA
:102660002168C86000206064202084F8410084F85C
:1026700042000020606300BFC8E7000010B586B0CC
:102680000446002002900390049005901E492068A3
:10269000884236D100BF1D48C06940F480201B49E4
:1026A000C8610846C06900F48020019000BF00BFE7
:1026B00000BF0846806940F00800886108468069CC
:1026C00000F00800019000BF00BF08150290022032
:1026D00003900320059002A90D48FEF72BFB4FF451
:1026E0000060029000200390049002A90848FEF7C1
:1026F00021FB002205212720FEF77AFD2720FEF787
:1027000067FD06B010BD0000004800400010024008
:10271000000C01407047704700BFFEE770B50446EB
:102720000D4600F053FB204600F03BFB00F004FB9D
:10273000284600F036FB00F0FFFA00F047FB44F0BB
:10274000010000F02EFB00F0F7FA00F004FB064653
:10275000012000F01AFB00F047FB304670BD70B559
:1027600006460C46154600F031FB304600F019FBDA
:1027700000F0E2FA204600F014FB00F0DDFA2846F3
:1027800000F00FFB00F0D8FA00F02EFB70BD000047
:102790002DE9F04385B004460D4616461F46DDE997
:1027A0000C8900200290039004900DF1120004A9FE
:1027B000031F03AACDE90010891F02A800F032F818
:1027C000BDF8080016490988084400B22080BDF809
:1027D0000A0013494988084400B22880BDF80C005B
:1027E0000F498988084400B23080BDF80E000C49BA
:1027F000C988084400B23880BDF81000084909892A
:10280000084400B2A8F80000BDF812000449498944
:10281000084400B2A9F8000005B0BDE8F08300004C
:10282000740000202DE9F05F06460F469046994659
:10283000DDE90AAB3B21D020FFF770FF04463C21C5
:10284000D020FFF76BFF054645EA042000B2308038
:102850003D21D020FFF762FF04463E21D020FFF744
:102860005DFF054645EA042000B238803F21D020B4
:10287000FFF754FF04464021D020FFF74FFF0546E5
:1028800045EA042000B2A8F800004321D020FFF759
:1028900045FF04464421D020FFF740FF054645EAA6
:1028A000042000B2A9F800004521D020FFF736FF30
:1028B00004464621D020FFF731FF054645EA0420B3
:1028C00000B2AAF800004721D020FFF727FF0446F6
:1028D0004821D020FFF722FF054645EA042000B238
:1028E000ABF80000BDE8F09F10B580226B21D0202E
:1028F000FFF735FF6420FEF709FA01226B21D02093
:10290000FFF72DFF00226C21D020FFF728FF0422C3
:102910001921D020FFF723FF04221A21D020FFF72E
:102920001EFF00221C21D020FFF719FF18221B21B7
:10293000D020FFF714FF10BD00B585B00020019036
:1029400002900390049000BF2D48806940F0200061
:102950002B4988610846806900F02000009000BF84
:1029600000BF00BF0846806940F004008861084647
:10297000806900F00400009000BF00BF00BF08465F
:10298000806940F0080088610846806900F008000E
:10299000009000BF00BF00224FF470411948FEF7BD
:1029A00061FB01224FF446711648FEF75BFB4FF4C2
:1029B00070400190012002900020039002200490BA
:1029C00001A91048FEF7B6F91820019011200290D5
:1029D000002003900320049001A90A48FEF7AAF9F9
:1029E0004FF44070019011200290012003900320C9
:1029F000049001A90348FEF79DF905B000BD000051
:102A000000100240000C014000B595B0002011906C
:102A10001290139014900F9010901C2108A8FDF7AD
:102A20003FFC20216846FDF73BFC2F482F490860FA
:102A30000020486000212D48816041F61F41C1609F
:102A40000021016141618161FFF71AF808B1FEF7C9
:102A500029F84FF48050119011A92448FFF798F8F5
:102A600008B1FEF71FF82148FFF7ABFB08B1FEF7EE
:102A700019F800200F9010900FA91C48FEF7BEFF18
:102A800008B1FEF70FF860200890002009900A9026
:102A90000B900C900D900E90002208A91348FFF7A0
:102AA0000EFB08B1FDF7FEFF0C2208A90F48FFF747
:102AB00006FB08B1FDF7F6FF0020009001900290A0
:102AC000039004904FF40050059000200790694651
:102AD0000648FEF759FF08B1FDF7E4FF0348FFF78A
:102AE000C1FA15B000BD0000002C01408C40002050
:102AF00000B58BB0242102A8FDF7D2FB0020009086
:102B000001904FF080401949086000204860002182
:102B1000164881604FF6FF71C1600021016181613B
:102B200003200290002003900120049000200590D3
:102B30000A200690002007900120089000200990AC
:102B40000A200A9002A90948FFF7A8F808B1FDF782
:102B5000A9FF00200090019069460448FEF74EFF4F
:102B600008B1FDF79FFF0BB000BD0000D44000206E
:102B700000B58BB0242102A8FDF792FB0020009045
:102B80000190194819490860002048600021174841
:102B900081604FF6FF71C1600021016181610320F6
:102BA00002900020039001200490002005900A204C
:102BB00006900020079001200890002009900A202C
:102BC0000A9002A90948FFF769F808B1FDF76AFF02
:102BD00000200090019069460448FEF70FFF08B1FD
:102BE000FDF760FF0BB000BD000800401C41002055
:102BF00010B50B480B4908604FF4E13048600021E4
:102C000008488160C16001610C214161002181613E
:102C1000C161FFF7F7FC08B1FDF744FF10BD0000EC
:102C2000004800406441002000BFFEE710B50446A4
:102C3000012C0AD1002241031148FEF713FA0122A8
:102C400011030F48FEF70EFA18E0022C0AD10022F9
:102C5000E1020B48FEF706FA012251030848FEF78D
:102C600001FA0BE000224FF400510548FEF7FAF993
:102C700000224FF480510248FEF7F4F910BD000025
:102C8000000C014010B50446012C0AD1002281033A
:102C90001148FEF7E7F90122D1030F48FEF7E2F9E8
:102CA00018E0022C0AD10022A1030B48FEF7DAF942
:102CB000012291030848FEF7D5F90BE000224FF4FA
:102CC00080410548FEF7CEF900224FF4004102484A
:102CD000FEF7C8F910BD0000000C014070B50446B5
:102CE0000D46002C06DB0120FFF7A0FFA0B200F08C
:102CF00055FA06E00220FFF799FF614288B200F022
:102D00004DFA002D06DB0120FFF7BCFFA8B200F052
:102D10003FFA06E00220FFF7B5FF694288B200F0F3
:102D200037FA70BD10B508210248FEF793F9044642
:102D3000204610BD000C014010B5012000F06AF8DB
:102D4000012000F05DF8FFF7EDFF0446002000F0E1
:102D500057F8204610BD70B50025012000F05AF844
:102D600000240EE0012000F04BF8FFF7DBFF012804
:102D700002D1802020410543002000F041F8601C72
:102D8000C4B2082CEEDB284670BD10B504462046C0
:102D900000F040F8012000F033F8002000F030F897
:102DA00010BD70B5054600240DE08021214101EAE7
:102DB000050000F02FF8012000F022F8002000F0BC
:102DC0001FF8601CC4B2082CEFDB70BD10B50120E9
:102DD00000F020F8012000F013F8002000F01AF8AD
:102DE000002000F00DF810BD10B5002000F012F822
:102DF000012000F005F8012000F00CF810BD0000E3
:102E000010B50446224610210148FEF72BF910BDEB
:102E1000000C014010B50446224608210148FEF787
:102E200021F910BD000C014000BFFEE770B5002481
:102E30000EE00021204600F0C6F8002504E0002046
:102E400000F04FF9681CC5B2802DF8DB601CC4B2DD
:102E5000082CEEDB70BD000070B50546002415E0BF
:102E60008020204100EA05024FF400710E48FEF771
:102E7000F9F8012211020C48FEF7F4F800224FF491
:102E800080710948FEF7EEF8601CC4B2082CE7DB3D
:102E9000012211020448FEF7E5F800224FF4807188
:102EA0000148FEF7DFF870BD000C014010B50122AB
:102EB00051020A48FEF7D6F8012211020748FEF730
:102EC000D1F800224FF400710448FEF7CBF800223D
:102ED0004FF480710148FEF7C5F810BD000C0140A9
:102EE00010B500224FF400710648FEF7BBF801222E
:102EF00011020448FEF7B6F8012251020148FEF71C
:102F0000B1F810BD000C014070B5002406E00025AA
:102F100000E06D1CB5F57A7FFBD3641CB4F57A7FB5
:102F2000F5D3AE2000F0CDF8D52000F0CAF880200F
:102F300000F0C7F8A82000F0C4F83F2000F0C1F866
:102F4000D32000F0BEF8002000F0BBF8402000F0D5
:102F5000B8F8A12000F0B5F8C82000F0B2F8DA20E7
:102F600000F0AFF8122000F0ACF8812000F0A9F8D2
:102F7000CF2000F0A6F8D92000F0A3F8F12000F04F
:102F8000A0F8DB2000F09DF8302000F09AF8A42093
:102F900000F097F8A62000F094F88D2000F091F84A
:102FA000142000F08EF8AF2000F08BF8FFF73EFF02
:102FB00070BD10B50246012000E050430B1EA1F188
:102FC0000101FAD110BD70B505460C4645F0B000C0
:102FD00000F077F8102141EA141000F072F804F0C4
:102FE0000F0000F06EF870BD2DE9F04105460E4669
:102FF0001746721ED206110E6A1E5206100EFFF7F9
:10300000E2FF002409E0A7F12001134A02EB0111BD
:10301000085D00F066F8601CC4B2082CF3DB721E79
:10302000D206110E6A1E012303EB4202D0B2FFF753
:10303000CAFF00240BE0A7F12001074A02EB0112AE
:1030400004F10801505C00F04CF8601CC4B2082C7C
:10305000F1DBBDE8F0810000DC6300082DE9F047FA
:103060008146884615461E46002D06DB2B2241462A
:103070004846FFF7B9FF2F4605E02D224146484656
:10308000FFF7B2FF6F42002417E0301B411E0A20F9
:10309000FFF78FFFB7FBF0F00A21B0FBF1F201FB65
:1030A000120000F1300A08EB0400401CC1B2524685
:1030B0004846FFF799FF601CC4B2B442E5DBBDE8A7
:1030C000F08710B50446FFF7F1FE7820FFF7C4FE45
:1030D0000020FFF7C1FE2046FFF7BEFEFFF700FF0E
:1030E00010BD10B50446FFF7E1FE7820FFF7B4FEEF
:1030F0004020FFF7B1FE2046FFF7AEFEFFF7F0FEDF
:1031000010BD000010B51D4800681D49096808443D
:103110001C4908601948006819490968401A1A4989
:1031200008601848006841F28831884203DD08468B
:103130001449086007E0134800681449884202DA1D
:103140000846104908601048006841F288318842FA
:1031500003DD08460C49086007E00B4800680B498E
:10316000884202DA0846084908600748008801B228
:103170000448008800B2FFF7B1FD10BD2401002013
:10318000400100204C0100205001002078ECFFFF9E
:1031900001490968486370478C400020014909686B
:1031A000086470478C40002008B508490968C908C0
:1031B0004FF47A72B1FBF2F14143009100BF00BFBE
:1031C00000994A1E00920029F9D108BD0000002094
:1031D0000DE00748006802F08FFE044603232246F4
:1031E00001210846FFF73AFF142001F0C1FBF0E788
:1031F000CC00002010B501F0F5FD012801D001F050
:10320000C3FC10BD00B58FB0282105A8FDF748F814
:1032100014216846FDF744F801200590000406904B
:10322000002007900120099002200C90C1030D910D
:103230004FF4E0110E9105A8FEF772F908B1FDF701
:1032400031FC0F20009002200190002002904FF4EA
:10325000806003900020049002216846FEF71AF86F
:1032600008B1FDF71FFC0FB000BD704710B5024854
:10327000FEF741FE10BD0000AC41002010B5026811
:103280001C4B984208D0B0F1804F05D01A4B9842A1
:1032900002D01A4B984203D122F070024B681A43B5
:1032A000144B984208D0B0F1804F05D0124B984291
:1032B00002D0124B984203D122F44072CB681A43D9
:1032C00022F080034C6943EA040202608B68C36207
:1032D0000B688362074B984201D10B69036301239A
:1032E0004361036903F001031BB1036923F0010388
:1032F000036110BD002C01400004004000080040A4
:1033000030B501F01F05012404FA05F3046A9C435B
:103310000462046A01F01F0502FA05F52C430462F9
:1033200030BD30B50C46816821F47F4142EA032567
:1033300025432943816030BD0A46816821F0700130
:1033400042F00703194381607047000030B5026AFC
:10335000056A25F0010505624368846924F070045C
:1033600024F003040D682C4322F002028D682A43E6
:103370000D4DA84206D100BF22F00802CD682A43B5
:1033800022F00402084DA84207D123F4807323F4ED
:1033900000734D692B438D692B43436084614D68F5
:1033A0004563026230BD0000002C014030B5026A66
:1033B000056A25F0100505624368846924F4E04439
:1033C00024F440740D6844EA052422F020028D683C
:1033D00042EA05120E4DA84207D100BF22F080023A
:1033E000CD6842EA051222F04002094DA84209D1F7
:1033F00023F4806323F400634D6943EA85038D69F8
:1034000043EA8503436084614D688563026230BD91
:10341000002C014030B5026A056A25F4807505620A
:103420004368C46924F0700424F003040D682C433D
:1034300022F400728D6842EA05220F4DA84207D19E
:1034400000BF22F40062CD6842EA052222F48062C5
:10345000094DA84209D123F4805323F400534D6948
:1034600043EA05138D6943EA05134360C4614D685F
:10347000C563026230BD0000002C014030B5036A14
:10348000056A25F4805505624468C26922F4E04269
:1034900022F440720D6842EA052223F400538D683D
:1034A00043EA0533064DA84204D124F480444D6913
:1034B00044EA85144460C2614D680564036230BD0E
:1034C000002C014030B50B461446026A056A25F00F
:1034D00001050562816921F0F00141EA041122F041
:1034E0000A021A438161026230BD30B50B461446B0
:1034F000026A056A25F010050562816921F47041B0
:1035000041EA043122F0A00242EA03128161026220
:1035100030BD70B505466C6A0020E085E084204629
:10352000FEF7FCFE70BD00BF00BF02680C3252E81F
:10353000002F22F4907102680C3242E80013002B35
:10354000F3D100BF00BF00BF0268143252E8002F61
:1035500022F001010268143242E80013002BF3D17B
:1035600000BF016B01290ED100BF00BF02680C3201
:1035700052E8002F22F0100102680C3242E80013DA
:10358000002BF3D100BF202180F8421000210163FD
:10359000704710B504462068C06820F040002168DC
:1035A000C860202084F841002046FFF7B4F80020CE
:1035B00010BDF8B5044694F84200222875D1A068E1
:1035C000B0F5805F0CD1206950B90025A66A20684B
:1035D0004068C0F308003080A06A801CA06215E03B
:1035E000A56A0026A068B0F5805F03D0A06828B95E
:1035F000206918B920684068287004E02068406895
:1036000000F07F002870A06A401CA062E08D401E80
:1036100080B2E085002846D12068C06820F02000F4
:103620002168C8602068C06820F480702168C86084
:103630002068406920F0010021684861202084F85A
:10364000420000206063206B012826D10020206307
:1036500000BF00BF21680C3151E8001F21F01000AD
:1036600021680C3141E80002002AF3D100BF206834
:10367000006800F0100010280AD100BF0020009060
:1036800020680068009020684068009000BF00BF7C
:10369000A18D2046FEF741FE02E02046FFF73AF8F2
:1036A0000020F8BD01E00020FBE70220F9E7000060
:1036B00070B504462168096921F44051E26811435C
:1036C000226811612269A1681143626941EA020519
:1036D0002168C96841F20C62914329432268D16094
:1036E0002168496921F44071A2691143226851613E
:1036F0002D4A2168914202D1FDF7CAFE01E0FDF793
:10370000B7FE00EBC00101EB001162689200B1FB53
:10371000F2F100EBC00202EB001263689B00B2FB07
:10372000F3F26423B2FBF3F202EBC20303EB0212E7
:10373000A1EB8201322202EB01116422B1FBF2F112
:1037400001F0F00100EBC00202EB001263689B0085
:10375000B2FBF3F26423B2FBF3F201EB021200EBD3
:10376000C00101EB001163689B00B1FBF3F100EBBA
:10377000C00303EB00136668B600B3FBF6F36426E0
:10378000B3FBF6F303EBC30606EB0313A1EB8301D4
:10379000322303EB01116423B1FBF3F101F00F01BC
:1037A00011442268916070BD00380140014691F8D3
:1037B0004100212828D18868B0F5805F0BD10869C5
:1037C00048B90A6A1088C0F308000B685860086A94
:1037D000801C086205E00B6A581C086218780B68A8
:1037E0005860C88C401E80B2C88458B90868C06848
:1037F00020F080000B68D8600868C06840F0400086
:103800000B68D860002070470220FCE710B5024822
:10381000FEF786FD10BD00006441002000BFFEE7FA
:103820002DE9FF5F05460E4691460024A81904B213
:103830003648B0F9000001F012FF0746344A354B14
:1038400001F024FF82468B46204601F008FF074620
:103850002F4A314B01F01AFF52465B46CDE9000179
:1038600001F07EFCCDE9020101F0CAFE04B2274856
:1038700004802A480088204400B22849088008466D
:10388000B0F9000042F21071884203DD0846234976
:10389000088009E02148B0F900002149884203DA94
:1038A0004DF6F0001D4908801E49484602F058FCBC
:1038B00001D2012700E000271B49484602F050FBD7
:1038C00001D2012000E00020074317B10020134976
:1038D00008801248B0F9000002F02AFB8246134823
:1038E0000168504602F070FB0746204602F020FBBC
:1038F00082460F480168504602F066FB8046394612
:1039000002F0CAF90B490860BDE8FF9F540100208E
:103910009A9999999999E93F9999C93F5601002037
:10392000F0D8FFFF00002042000020C23C01002030
:103930003801002034010020490050EAC12018BF9E
:1039400004204A0D18BF40F0010040F2FF72B2EBB4
:10395000515F08BF40F00200012808BF05207047F2
:1039600002480068C0F30220704700000CED00E040
:1039700010B5002804DB0A07130E054A135406E0AD
:103980000A07140E034A00F00F031B1FD45410BD86
:1039900000E400E018ED00E02DE9F0414F1E00EBDF
:1039A000C7010446D1E9000115461E4637F006025C
:1039B0000DD02A46334601F069FE7F1E04EBC70393
:1039C000D3E9002301F0CCFB37F00602F1D1022F3E
:1039D00025D0042F13D0062F18BFBDE8F0812A464A
:1039E000334601F053FED4E90A2301F0B9FB2A461D
:1039F000334601F04BFED4E9082301F0B1FB2A461F
:103A0000334601F043FED4E9062301F0A9FB2A4620
:103A1000334601F03BFED4E9042301F0A1FB2A4622
:103A2000334601F033FED4E9022301F099FB2A4624
:103A3000334601F02BFED4E90023BDE8F04101F04C
:103A40008FBB012202F06FBC01F08ABB002213463B
:103A50001046114601F040BC024A0020110702F056
:103A600062BC000001FDFFFF2DE9F04D8D4F21F0FC
:103A7000004A86B005460C46BA452ADBAAEB070089
:103A800028430AD08848824501DC1AD1CDB106B05E
:103A90002846BDE8F04DFFF7D4BF844A844B284642
:103AA00001F0F4FD07460E46824A834B2846214624
:103AB00001F0ECFD06B03A463346BDE8F04D01F0AA
:103AC0004FBB0120FCF71BFC06B0BDE8F04DFFF733
:103AD000BDBF7A48824542DABAF1795F0BDA2846EF
:103AE000FFF72AFF042808BFFFF7B6FF284606B0F5
:103AF0002146BDE8F08D2A460B46104601F0C6FD72
:103B0000834602466E480E460B4606217844FFF770
:103B100043FF5A46334601F0B9FD804669488A465C
:103B20005A46334604217844FFF736FF5A46334657
:103B300001F0ACFD00223B4601F012FB02460B46B1
:103B40004046514601F0C8FB2A46234601F09EFD3F
:103B500006B02A462346BDE8F04D01F001BB2846D9
:103B600024F0004100223D463B4601F08DFE4FF01F
:103B7000FF3202F0D8FB0646024653480F460B467A
:103B800006217844FFF708FF32463B4601F07EFDF0
:103B9000CDE900014D4832463B4604217844FFF709
:103BA000FBFE32463B4601F071FD00222B4601F040
:103BB000D7FA834602913046394600F0D1FD80465F
:103BC00043480D46504517DCDDE900015A46029B8B
:103BD00001F082FB42462B4601F058FD42462B463F
:103BE00001F0BEFA012202F09EFB304A304B01F098
:103BF0003DFF304A304B4CE04FF0000A52460B4636
:103C0000404601F0ADFACDE9031052462B4610466E
:103C1000194601F03BFD32463B4601F035FEDDE939
:103C2000033201F059FB06460F46DDE900015A4612
:103C3000029B01F051FB8346009101223046394638
:103C400002F071FB194A1A4B01F01EFE06460F46A0
:103C500001224046294602F066FB5A46009B01F0CD
:103C600015FD32463B4601F001FF06460F46012294
:103C70005046294602F057FB0E4DDFF858802A4681
:103C8000434601F001FE32463B4601F0FDFD2A4667
:103C9000434601F0F9FD002CD8BF81F0004106B089
:103CA000BDE8F08D0000F03F0000F07F075C1433AA
:103CB00026A6913C182D4454FB21F93F0000E03F1B
:103CC000C02E0000D62E00004A2E0000602E0000FC
:103CD0003333EF3FFB21E93F2DE9F84F04460D4612
:103CE00021F0004000917349814211DC7249884201
:103CF00001DC06D12CB120462946BDE8F84FFFF77C
:103D0000A0BE6E48002DCCBF6D496E49BDE8F88F4E
:103D10006D49814211DD6D498142D8BF4FF0FF36B8
:103D20006DDD20462946FFF707FE042808BFFFF790
:103D300093FE20462946BDE8F88F6549654F25F07A
:103D40000045814233DD6449814219DD0026324657
:103D50004FF080432046294601F002FA80468A4609
:103D600001222046294602F0DEFA00223B4601F0FD
:103D70007DFE4246534601F0AFFA04460D463EE052
:103D800001260022BA463B462046294601F0E8F9C2
:103D900080460F46002253462046294601F066FE23
:103DA00042463B4601F098FA04460D4627E04B494F
:103DB00081421BDDDFF828A102260022534620465F
:103DC000294601F063FC00223B4601F0C9F9804618
:103DD0000F46002253462046294601F047FE424640
:103DE0003B4601F079FA04460D4608E003262246D8
:103DF0002B4600203B4901F06FFA04460D4622464F
:103E00002B461046194601F041FC8B46824602467D
:103E10000B4601F03BFC07460246334888460B46FA
:103E200006217844FFF7B8FD52465B4601F02EFCB0
:103E300082462E488B463A46434605217844FFF792
:103E4000ABFD3A46434601F021FC02460B46002EEC
:103E5000504659460CDA01F083F922462B4601F010
:103E600015FC01B022462B46BDE8F04F01F00CBD19
:103E700001F076F922462B4601F008FC1C4A7A44F0
:103E800002EBC603D3E9002301F0F0FD22462B46E6
:103E900001F0ECFD174A7A4402EBC603D3E9002394
:103EA00001F0F2FC009A002AB8BF81F00041BDE8A1
:103EB000F88F0000000010440000F07F182D4454DB
:103EC000FB21F93FFB21F9BF0000DC3F0000203E51
:103ED0000000F33F0000F03F0000E63F0080034099
:103EE0000000F83F0000F0BF622C0000202C000012
:103EF000BE2B0000862B00002DE9F04D9446CCF13E
:103F0000000423F000464CEA0404594F46EAD474F6
:103F10009A46884621F00042BC4206D8454240EA13
:103F2000050442EAD474BC4204D9BDE8F04D6246AF
:103F3000FFF78ABDAAF14055A5F17F6555EA0C044B
:103F40000BD0022404EAAA744A4DDFF82CE144EABB
:103F5000D87452EA000B04D00CE0BDE8F04DFFF736
:103F6000BBBE002C14BF012CBDE8F08D022C30D05C
:103F7000032C32D056EA0C0B0AD0BE4220D1BA42F2
:103F800009D126F0804622F080423346114617E0E0
:103F900000291ADB25E0DFF8E4B0FB44002C04BF65
:103FA000DBE90001BDE8F08D012C02BFDBE9000177
:103FB00081F00041BDE8F08D022C0AD0032C0CD01A
:103FC000BA4212D1B8F1000F0BDA2A482C49BDE8E9
:103FD000F08D28462B49BDE8F08D28467146BDE896
:103FE000F08D24482849BDE8F08D921B12153C2A1B
:103FF000C4BF204F244E10DCBAF1000FBEBF12F137
:104000003C0F00273E4608DB624601F065F921F0CF
:104010000041FFF761FE07460E4694B1012C08BF30
:1040200086F000460DD0194A194B022C384631460D
:1040300015D001F01BFD2A46BDE8F04D114B01F0F3
:1040400015BD002213463846314601F09DFA04BFE3
:104050000220FCF754F938463146BDE8F08D01F0F6
:1040600005FD2A46BDE8F04D064B01F00DBC0000F1
:104070000000F07F182D4454FB2109C01A2B0000CA
:10408000FB21F9BFFB210940FB21F93F075C1433F9
:1040900026A6A13C2DE9FC412E482F492F4B304A42
:1040A000CDE900102F493048FEF772FB2E48B0F9D9
:1040B000000001F03DFF04464FF08D4101F05AFE33
:1040C0002A4908602748B0F9000001F031FF044692
:1040D0004FF08D4101F04EFE244948602048B0F970
:1040E000000001F025FF04464FF08D4101F042FE33
:1040F0001E4988601948B0F9000001F0B0FA064680
:104100001B4A1C4B01F0C2FA044600F0F7FF1749A6
:10411000C8601148B0F9000001F0A1FA0646144A3F
:10412000144B01F0B3FA044600F0E8FF0F490861B0
:104130000848B0F9000001F092FA06460C4A0D4B0F
:1041400001F0A4FA044600F0D9FF08494861BDE82F
:10415000FC8100008A0000208800002086000020EA
:104160008400002082000020800000204C400020BD
:104170005036E50AEF72513F2DE9F04704464FF003
:104180007C51204601F020FF814625462E460C48F2
:10419000A0EB660635462946484601F015FF8246E3
:1041A000294601F011FF80464FF07F5102F009F8D7
:1041B0000746294601F008FF05462846BDE8F08776
:1041C000865A375FFCF766FFFFF71CF8FEF7B4FB73
:1041D000FEF71AFCFEF78CFCFEF7CAFCFEF708FDA2
:1041E000FEF792FE00210E48FEF720F80C210C4845
:1041F000FEF71CF804210B48FDF716FE00210948C4
:10420000FDF712FE04210848FDF70EFE00210648C6
:10421000FDF70AFEFEF768FBFCF7EAF800BFFEE7D1
:104220008C400020D44000201C4100202DE9F041AA
:1042300005460E462648076826480068001D00F01F
:10424000F9FA50B92348006890F82C1001208840F2
:1042500021490968814320480160681CD8B9D6B15A
:104260001E4948681B49096888601A4982680968BC
:10427000CA6018490968091D8268516015490968B2
:10428000091D8160154A134909684A611146096888
:10429000491C11601AE07C190E4800684460BC4259
:1042A00007D20C480168091D0D48006800F0E6FAC5
:1042B0000CE008480168091D0A48006800F0DEFAB1
:1042C00009480068844201D207480460BDE8F081D3
:1042D00024000020100000202800002038040020C6
:1042E00018000020140000204000002010B50446F3
:1042F00000F0EAFA2F480068401C2E4908602E485A
:10430000006840B92C4804600846006801280DD1B7
:1043100000F016F90AE02948006838B92648006814
:10432000C06AE16A884201D82348046024480068D2
:10433000401C2349086094F82C1001208840214932
:10434000096808431F490860E16A01EB81011E4AC0
:1043500002EB81014868A0608268E260211D8268EA
:1043600051608160E16A01EB8101174A02EB810231
:104370006261E16A01EB8101134A52F82110491C84
:10438000E26A02EB8202104B43F8221000F0AEFA10
:104390000A48006868B108480068C06AE16A884253
:1043A00007D24FF0805009490860BFF34F8FBFF329
:1043B0006F8F10BD20000020100000202C00002076
:1043C0003C000020280000206801002004ED00E0EF
:1043D00010B516E000F078FA0C48C068C468201DDB
:1043E00000F028FA0A480068401E09490860094898
:1043F0000068401E0749086000F078FA204600F087
:104400000BF8044800680028E4D110BD2404002003
:10441000200000201C00002010B50446206B00F096
:1044200075FA204600F072FA10BD000030B54FF466
:104430007053154800F007042CB1C01D20F0070090
:10444000114C041B1B1B0246104C226000240F4D14
:104450006C60D018083820F007000D4C2060002454
:104460000B4D2D686C600A4D2D682C601146441A66
:104470004C60074C24680C60064D4C682C60064D5F
:104480004C682C6030BD00004C040020540000201B
:104490005C000020640000206000002000BFFFF7E7
:1044A00097FF064800680128F9D94FF08050044969
:1044B0000860BFF34F8FBFF36F8FF0E768010020F4
:1044C00004ED00E02DE9FF5F80460E469146DDE9F0
:1044D0000E7A109CA9F10100216B01EB800B2BF0EF
:1044E000070B7EB1002507E0715D04F134004155F2
:1044F000705D00B902E06D1C102DF5D300BF0021E6
:1045000043200155202F00D31F27E762201D00F014
:10451000B2F904F1180000F0AEF92461C7F12000EF
:10452000A061646241465846039A00F007F9206092
:10453000BAF1000F01D0CAF80040BDE8FF9F0000AB
:1045400010B5002407E004EB84010F4A02EB810060
:1045500000F084F9641C202CF5D30C4800F07EF99F
:104560000B4800F07BF90B4800F078F90A4800F09E
:1045700075F90A4800F072F90448094908600448CE
:104580000849086010BD000068010020E803002011
:10459000FC03002010040020240400203804002024
:1045A000140000201800002010B50146164800E055
:1045B000006803688B42FBD30246436813448B4276
:1045C00004D143684C682344436001460A464B6863
:1045D00013440468A34211D10C4C03682468A3421D
:1045E00008D04B680468646823444B6003681B6808
:1045F0000B6005E0054B1B680B6001E003680B6076
:10460000884200D0016010BD540000205C000020F2
:1046100009480068006808B9012000E0002020B1C6
:104620004FF0FF300549086005E003480068C068A6
:104630000068024908607047140000204000002014
:1046400000BF502080F31188BFF34F8FBFF36F8FEF
:1046500000BF00BFFEE700002DE9F04705464FF020
:10466000000900F03FFA3048006808B9FFF7DEFEA5
:1046700075B105F00700C0F11008C8F1FF30A8427D
:1046800001D2012000E0002008B9454400E00025E7
:10469000012000EBE570002841D0002D3FD02348D9
:1046A000006885423BD8224E3046046801E0264629
:1046B00024686068A84202D220680028F7D11A480E
:1046C000006884422BD0306800F10809206830600F
:1046D0006068401B102807D967196068401B786024
:1046E00065603846FFF760FF104960680968081A7E
:1046F0000E490860084600680E490968884203D2DE
:104700000A4800680B490860606840F0004060603B
:104710000020206008480068401C0749086000F03D
:104720003FFC4846BDE8F0875C00002060000020A8
:10473000540000206400002068000020001F4FF09B
:1047400080730360001F21F001030360001F034B0F
:1047500003601438026020387047000041460008AA
:104760002DE9F04106460F4601F09AF8041E0D4669
:1047700018BF0120284320F00040C0F17F6000F105
:10478000E040C00F0ED0301C18BF0120384320F08D
:104790000040C0F17F6000F1E040C00F04BF012085
:1047A000FBF7ADFD20462946BDE8F0812DE9F0413B
:1047B00004460F46164600F087F81C48006844304F
:1047C00050F8240080B9012118480068483001558C
:1047D00056B13046FFF72AFD4FF08050144908606B
:1047E000BFF34F8FBFF36F8F00F080F800F06CF8CD
:1047F0000E480068443050F824506DB137B10021A4
:104800000A480068443040F8241005E0681E074953
:104810000968443141F82400002104480068483008
:10482000015500F063F82846BDE8F0811000002033
:1048300004ED00E001460A69D1E901309860D1E950
:10484000010358605068884201D188685060002098
:1048500008611068401E10601068704700F1080180
:1048600041604FF0FF31816000F10801C1600161DA
:1048700000210160704700210161704710B50246B8
:104880000B685C1C0CB9106907E002F1080000E03D
:104890004068446824689C42FAD944684C604C687B
:1048A000A160886041600A611468641C146010BDD6
:1048B00042684A6093688B609368596091600861B0
:1048C00003685B1C0360704700BF502080F31188B1
:1048D000BFF34F8FBFF36F8F00BF03480068401CCA
:1048E0000149086070470000500000200648006839
:1048F000401E054908600846006820B9002080F382
:10490000118800BF00BF70475000002070B50646F8
:104910003546E6B1083D2C466068C00FB8B1206846
:10492000A8B9606820F00040606000F0DBF808493A
:10493000606809680844064908602046FFF734FEAD
:1049400004480068401C0349086000F029FB70BD62
:10495000600000206C00002000204FF0E021086182
:104960008861024848610720086170473F190100CB
:1049700070B50446002544B100F0B4F8002120468B
:10498000FFF754FC00F00CFB05463DB94FF080509A
:1049900003490860BFF34F8FBFF36F8F70BD0000F6
:1049A00004ED00E070B50546FFF78EFF15B9294804
:1049B000006800E028460446201DFFF73BFF78B959
:1049C000E06A00EB8000244951F8200040B994F8D7
:1049D0002C10012088402149096881431F4801604B
:1049E000A06A18B104F11800FFF724FF1C48006802
:1049F000401C1B49086017480068844209D1211DEA
:104A00001848FFF755FF18480068401C1649086011
:104A100006E016480068401E14490860FFF7F8FDDC
:104A2000FFF764FF0B480068844202D02046FFF77E
:104A3000F3FC0F48006858B106480068844207D16B
:104A40004FF080500B490860BFF34F8FBFF36F8F5B
:104A500070BD000010000020680100202800002028
:104A60003C000020240400201C0000202000002026
:104A70002C00002004ED00E01CB5124800210B467C
:104A80008022CDE9001010A1114800F097F80446EB
:104A9000012C14D100BF502080F31188BFF34F8F39
:104AA000BFF36F8F00BF4FF0FF300A49086001204D
:104AB0000949086000200949086000F04BF80848DF
:104AC00000681CBD4400002049444C450000000023
:104AD0009D440008400000202C00002024000020FD
:104AE0004800002002480068401C014908607047E7
:104AF0004C0000201248006818B1012011490860DC
:104B00001DE000200F4908600F480068B0FA80F0EF
:104B1000C0F11F0101EB81020C4B03EB82004268E4
:104B20005268426000F108024368934202D1426831
:104B3000526842604268D268054B1A6000BF7047F5
:104B40004C000020340000202800002068010020D4
:104B50001000002010B50A48006840F470000849B1
:104B600008600846006840F070400860FFF7F4FEF7
:104B7000002004490860FBF739FB002010BD00004D
:104B800020ED00E05000002010B500BF502080F361
:104B90001188BFF34F8FBFF36F8F00BF00F038F95C
:104BA00018B14FF080500449086000BF002080F326
:104BB000118800BF10BD000004ED00E02DE9FF4F9B
:104BC00085B0804689461746DDE912ABB800FFF78D
:104BD00043FD064676B14C20FFF73EFD04462CB15E
:104BE0004C212046FBF75CFB266304E03046FFF7D0
:104BF0008DFE00E000247CB10020CDE900ABCDE9C2
:104C000002403A4649464046089BFFF75BFC204677
:104C1000FFF76CFB012501E04FF0FF35284609B096
:104C2000BDE8F08F2DE9F047044688464FF00009B3
:104C3000FFF758FF16480668206800EB0805206853
:104C4000B04207D92068A8420BD9B54209D94FF024
:104C5000010906E02068A84201D8B54201D94FF009
:104C600001092560B9F1000F03D0A81B0021FFF74F
:104C7000DDFA00F095F907463FB94FF0805005493D
:104C80000860BFF34F8FBFF36F8F4846BDE8F087D2
:104C90002400002004ED00E02DE9F05F81460D4680
:104CA00016461F46DDF828A04FF0010B4C46FFF7D3
:104CB0000BFEBAF1000F05D004F1440050F82500B6
:104CC000CAF8000004F1480010F80580022141559F
:104CD000052F29D2DFE807F027030D171C0004F188
:104CE000440050F82500304304F1440141F8250008
:104CF0001BE004F1440050F82500401C04F144017D
:104D000041F8250011E004F1440040F825600CE072
:104D1000B8F1020F04D004F1440040F8256001E02E
:104D20004FF0000B01E000E000BF00BFB8F1010F41
:104D30004AD16069D4E902128A60D4E902214A604A
:104D4000211D42688A4201D1E1684160002262610E
:104D50000168491E016094F82C10012088401D490B
:104D6000096808431B490860E16A01EB81011A4A9E
:104D700002EB81014868A0608268E260211D8268C0
:104D800051608160E16A01EB8101134A02EB81020B
:104D90006261E16A01EB81010F4A52F82110491C5E
:104DA000E26A02EB82020C4B43F822100B49E06AE4
:104DB0000968C96A884207D94FF0805008490860DD
:104DC000BFF34F8FBFF36F8FFFF790FD5846BDE8DD
:104DD000F09F000028000020680100201000002043
:104DE00004ED00E00549096809B9012005E004491E
:104DF000096809B9022000E0002070472C0000205B
:104E00004C00002001490868704700002400002081
:104E10002DE9F04100275748006800287ED1564808
:104E20000068451C544805608DB95448D0F800808E
:104E300053480068514908605148C0F80080514803
:104E40000068401C4F490860FFF7E2FB00BF4E4876
:104E50000068854276D300BF48480068006808B9FA
:104E6000012000E0002020B14FF0FF3046490860EB
:104E700067E042480068C068C4686668B54202D20C
:104E8000414806605DE06069D4E902128A60D4E9B5
:104E900002214A60211D42688A4201D1E1684160D5
:104EA000002262610168491E0160A06A98B1A06A8F
:104EB000D4E907128A60D4E907214A6004F1180195
:104EC00042688A4201D1216A41600022A2620168DF
:104ED000491E016000BF94F82C10012088402B4926
:104EE0000968084329490860E16A01EB8101284A01
:104EF00002EB81014868A0608268E260211D82683F
:104F000051608160E16A01EB8101214A02EB81027B
:104F10006261E16A01EB81011D4A00E022E052F882
:104F20002110491CE26A02EB8202194B43F822105D
:104F30001849E06A0968C96A88428DD901278BE758
:104F400000E000BF13480068C06A00EB8000104911
:104F500051F82000012800D901270F48006800B14E
:104F6000012704E00D480068401C0C4908603846E1
:104F7000BDE8F0814C000020240000201400002037
:104F800018000020380000204000002028000020E9
:104F900068010020100000203400002030000020B4
:104FA00070B500240026FFF78FFC4B480068401EB8
:104FB000494908600846006800287DD147480068D4
:104FC000002879D05BE04648C068C468A06AD4E98C
:104FD00007128A60D4E907214A6004F11801426887
:104FE0008A4201D1216A41600022A2620168491E01
:104FF00001606069D4E902128A60D4E902214A6042
:10500000211D42688A4201D1E1684160002262614B
:105010000168491E016094F82C1001208840314934
:10502000096808432F490860E16A01EB81012E4AB3
:1050300002EB81014868A0608268E260211D8268FD
:1050400051608160E16A01EB8101274A02EB810234
:105050006261E16A01EB8101234A52F82110491C87
:10506000E26A02EB8202204B43F822101F49E06AF9
:105070000968C96A884202D301201D49086018489E
:10508000006808B9012000E0002000289BD00CB186
:10509000FFF7BEFA1748056865B100BFFFF7B8FE15
:1050A00010B10120124908606D1E002DF6D10020BC
:1050B000104908600E4800E009E0006838B1012698
:1050C00030070D490860BFF34F8FBFF36F8FFFF7B5
:1050D0000DFC304670BD00004C0000202000002078
:1050E000100400202800002068010020100000208B
:1050F000340000203000002004ED00E021F00042E8
:10510000A2F16052B2F5801F01F0004328BFD2F136
:105110007F6C0BD95FEA001C43EAC20242EB50707D
:1051200018BF704728BF20F001007047B2F5801FFC
:10513000BCBF184670474FEA410C1CF5001F02D255
:10514000084601F008B870B500F04AFB000000897D
:10515000FFF7F6BF4FF00040A0F580007047000059
:1051600010B591EA030F48BF83F0004300F1868435
:10517000841A71EB030C05D2121943EB0C03001BCC
:1051800061EB0C01DFF824E14FEA1154A4EB135C4E
:105190001EEA430F18BF9EEA445F73D023EA0E0352
:1051A000DCF1200E21EA045143F4801332D322FAB9
:1051B0000CFE10EB0E0023FA0CFE41EB0E01CCF1BD
:1051C000200E03FA0EFE10EB0E0051F10001B1F5B6
:1051D000801FCCF1200E32D201EB045112FA0EF2F4
:1051E000BDE8104058BF7047401C38BF5FEA42021C
:1051F00018BF7047002814BF20F0010041F10001E2
:105200004FEA410313F5001F38BF7047A1F1C041B9
:1052100000F034BB012A43EB0302ACF1200CDCF1BB
:105220001F0E32BF4FF0000E23FA0CF310EB0300F9
:1052300041EB0451B4EB115FD0D0A1EB045101F567
:10524000801149085FEA300001EB04510ED350F1A0
:10525000000038BF12FA0EFE08D1BDE81040C9E7C1
:10526000401C38BF5FEA4202CAD1C3E7BDE8104024
:105270004FEA410313F5001F38BF7047A1F1C04149
:1052800000F0FCBA9EEA445F08D011EA5E0FBDE868
:10529000104004BF01F0004100207047BDE81040FD
:1052A00070B500F09DFA00BF64FBBE3E0000E0FF59
:1052B00002494FF0000001F004B800BF0000F87F81
:1052C000491058BFC1F140415B1058BFC3F1404382
:1052D0008B42EFF3008070472DE9C04130B4DFF816
:1052E000A0C23CEA111418BF3CEA131400F0EC8091
:1052F00081EA03051CEA111444EAD57418BF1CEABC
:10530000131500F0C780A4EB05044FF0004545EAF3
:10531000C12145EAC32341EA505143EA525304F103
:105320007F74994204F500344FEAC0204FEAC2224C
:1053300008BF904200F09C804FEA13650FF24016C0
:10534000765D4FEA134506FB05F7C7F1807706FB4C
:1053500007F74FEAD737A7FB03687642C8F58038CE
:10536000A7FB06CE38BFA8F1010807FB08E64FF0FF
:10537000000EA6FB028CE6FB03CEDCF1000CCEF1A6
:10538000004E38BFAEF1010EA6FB0C584FF00007DF
:105390004FF00005E6FB0E87A1FB08C6A0FB07CE79
:1053A00016EB0E0645F10005E1FB076515F1E04E31
:1053B0007EBFA4F580345FEA46066D4116F1800792
:1053C00045F100054FEA17274FEA066647EA0567E9
:1053D000A6F1DE46B6F1805F4FEA15251FD93846A3
:1053E00024F0010C05EBC471BCF1FE6F01EB0C1154
:1053F00002D8F0BCBDE8008124425CBF01F5801EEC
:105400009EEAC47F02D4F0BCBDE80081244238D4B7
:10541000F0BCA1F1C041BDE8004100F02FBA4FEA55
:10542000D22242EA43524FEAD323A7FB02864FEA35
:10543000D02040EA415007FB03661EEA0E0F4FEAF8
:10544000D12105FB026658BFA6EB0056B6EB00560D
:105450004FEA520E4EEAC37E18EB0E0E56EB530E79
:10546000BDD518EB02085E417F1C55F10005B6E77B
:105470004FF480154FF000074FF000064FF0000882
:10548000ADE7F0BC4FF0000001F1C04101F0004178
:10549000BDE8008111EA0C1F0CEA131500D00CE0E6
:1054A00013EA0C1F00F025804FF00000F0BC81EAE9
:1054B000030101F00041BDE80081F0BCBDE80041FE
:1054C00081EA030100F0DAB9F0BCBDE8004170B533
:1054D00000F086F9097EFC3E00F007B881EA03017E
:1054E0004FF0000001F00041704781EA030100F035
:1054F000C5B9F0BCBDE800414FF00000214970473C
:10550000FFFDFBF9F7F5F4F2F0EEEDEBE9E8E6E488
:10551000E3E1E0DEDDDBDAD8D7D5D4D3D1D0CFCD0F
:10552000CCCBCAC8C7C6C5C4C2C1C0BFBEBDBCBB48
:10553000BAB9B8B7B6B5B4B3B2B1B0AFAEADACAB43
:10554000AAA9A8A8A7A6A5A4A3A3A2A1A09F9F9E1D
:105550009D9C9C9B9A9999989797969595949393CF
:10556000929191908F8F8E8E8D8C8C8B8B8A898966
:1055700088888787868585848483838282818180E9
:105580000000FF070000F87F51EA030C17D41CF558
:10559000801F58BFBCF5801F00F10680994218BFDC
:1055A000704708BF9042704707D711F5801F58BF5A
:1055B00013F5801F19D499427047894270471CF532
:1055C000801F08D5BCF5801FF7D58B4218BF7047E8
:1055D00008BF824270474FF4001C1CEB410F38BFDC
:1055E0001CEB430F01D28B42704770B500F0F8F806
:1055F000922449004FF000514FF08053FFF760BEF6
:105600004FEA41034FEA5353A3F58063D3F11E03DE
:10561000C8BFD3F1210C0CDD4FF0004242EAC12299
:1056200042EA505232FA03FC8CEAE17CACEBE170C6
:105630007047102BC4BF0020704703F5787CBCF185
:10564000FF3F04D06FF0004282EA2100704770B53E
:1056500000F0C6F84992248000207047F2E710F06D
:10566000004248BF4042B0FA80F310FA03F10AD07A
:10567000C3F11D0303F580634FEA415002EB03526F
:1056800002EBD12170474FF000007047DFF848C1AE
:1056900070B51CEA111E1EBF1CEA13159EEA0C0F02
:1056A00095EA0C0F00F06F8081EA030423EA4C13A3
:1056B0004EEAD47E21EA4C1141F4801143F4801368
:1056C000AE44A1FB024CA0FB0365AEF17F7E361910
:1056D00055EB0C05A1FB034C4CF10003A0FB021C95
:1056E00016EB0C06654153F10003094218BF46F062
:1056F000010613F4007F0BD14FEA03314FEA053066
:10570000340341EA155140EA16506FF003020AE0F3
:105710004FEAC3214FEAC520F40241EA555140EA5D
:1057200056506FF0020202EB2E4201EB025585EA61
:10573000CE710AD05FEA440C18BF24F0004450F147
:10574000000041F1000120EAD47040F2FE7C624585
:1057500000D270BDA84214BF4FF080444FF04044C7
:10576000002E08BF0024BEF1806FA8BFA1F1C04188
:10577000BDE8704080F282804FF0000001F1C0412E
:1057800001F0004170479EEA0C0F0CEA131518BF98
:1057900095EA0C0F06D04FF0000081EA030E0EF0E0
:1057A000004170BD00F01CF88900013E00F007B810
:1057B00000F009B84FEA430C5FEA5C5C08D081EA6C
:1057C000030100F05BB84FEA410C5FEA5C5CF6D184
:1057D0004FF00000014970470000FF070000F87F0C
:1057E0000EF1020E2EF0030E5EF8046B364205D465
:1057F000012A43EB030515F5001F12D8012841EBE0
:10580000010C1CF5001F0CD80ED14FEAD17C15F508
:10581000001F0CEB4C0C0CF1020C08BF4CEBD37CC2
:1058200004E04FF0080C01E04FEAD37C0CEB4C0590
:1058300026FA05F606F00706B6F1040C06D20EEBC2
:10584000860CBDE870404CF0010C6047DFE80CF0BE
:10585000090B02024FF000414FF00000A1F50021BA
:1058600070BD19461046012851EB010418BFD4F54C
:10587000001484BF002001F0004170BD0808A0F5AD
:1058800000114FEA3101704791EA030F10B581F022
:1058900000413FF56DAC83F0004300F0EFB800002D
:1058A0002DE9F04101F5801CBCF5001FC0F2C3805A
:1058B0004FEA115C21EA0C510CF1FD0C41F480110E
:1058C0005FEA5C0C0CF5C07C01D3400049413DA46B
:1058D000890241EA905187028E0E0A0CA45D04FBF6
:1058E00004F602FB06F6C6F14046A4FB0662F60D7E
:1058F00046EA422606FB06F4A4FB01235242C3F10A
:10590000404338BF5B1EA6FB02420024E6FB032493
:10591000D20B42EA4446A6FB0623A1FB02E2A3FB0C
:1059200007E4A4184FF0000252F10002E3FB014229
:105930006442C2F1404E38BFAEF1010EA6FB042313
:105940004FF00002E6FB0E32A2FB03464FF00004CC
:10595000B61954F10004E2FB0264A1FB06E6A4FBC5
:1059600007E816EB08064FF0000858F10008E4FBC2
:1059700001687642C8F1405838BFA8F10108A2FB7F
:1059800006E4A3FB08E52D194FF0000454F10004D0
:10599000E2FB0854A1FB05E6A7FB04E818EB0608A8
:1059A0004FF0000656F10006E1FB048618F12005D1
:1059B00056F10006A809A8F11B08B10908F03F0834
:1059C000B8F10A0F40EA86601CD901EB0C51BDE822
:1059D000F08100BFFCF5EEE8E2DDD8D3CFCBC7C342
:1059E000C0BDB9B6B4B1AEACA9A7A5A3A19F9D9BFC
:1059F0009A9896959392908F8D8C8B8988878685BF
:105A000084838281A0FB006800FB01F208EB42085E
:105A1000B8EB872807D5341858EB0104D5D5401CBE
:105A200051F10001D1E7341A78EB0104CDD4401EC6
:105A300071F10001C9E75FEA4C0C5FEA9C5C0DD193
:105A400005D34FF0000001F00041BDE8F081BDE852
:105A5000F04170B5FFF7C4FE6DDBFFBEBDE8F0415D
:105A60004FF00000004970470000F87F10B591EA40
:105A7000030F48BF83F000433FF57AAB841A71EB04
:105A8000030C07D212198CF0004C43EB0C03001BE3
:105A900061EB0C01DFF8A4E14FEA1154A4EB135CB5
:105AA0001EEA430F18BF9EEA445F00F0B08023EA6D
:105AB0006E03524221EA0451C3EB6E0338BF5B1EF2
:105AC000DCF1200E25D322FA0CFE10EB0E0043FA77
:105AD0000CFE41EB0E01CCF1200E03FA0EFE10EB92
